S01E000052544F532D4F4C45442D58706C61696E65642D50726F2E73726563AD
S214400000602E4020E5114000E3114000E31140001F
S214400010E3114000E3114000E311400000000000FF
S214400020000000000000000000000000BD15400079
S214400030E3114000000000005D164000C516400079
S214400040E3114000E3114000E3114000E31140009B
S214400050E3114000E3114000E3114000E31140008B
S214400060E311400000000000C50E4000D90E4000DD
S214400070ED0E4000E3114000E3114000E311400064
S214400080010F4000150F4000E3114000E31140000F
S214400090E3114000E3114000E3114000E31140004B
S2144000A0E3114000E3114000E3114000E31140003B
S2144000B0E3114000E3114000E3114000E31140002B
S2144000C0E3114000E3114000E3114000E31140001B
S2144000D000000000E311400000000000E311400073
S2144000E0E3114000E3114000E3114000E3114000FB
S2144000F0E3114000E3114000E3114000E3114000EB
S214400100E3114000E3114000E3114000E3114000DA
S214400110E311400000000000000000000000000066
S214400120E3114000E3114000E3114000E3114000BA
S214400130E311400000000000E3114000E3114000DE
S21440014010B5054C237833B9044B13B10448AFF3CC
S21440015000800123237010BDD0094020000000001D
S214400160947640000C4B43B10C480D4910B5AFF3A4
S21440017000800C48036823B910BD0A48036833B9A9
S2144001807047094B002BF7D0BDE810401847064B88
S214400190002BF5D0184700BF0000000094764000C2
S2144001A0D4094020947640000000000008B5074B74
S2144001B0984203D0064B984204D008BD1520054B04
S2144001C0984708BD2A20034B9847F6E70080004032
S2144001D00080054049104000436823F47023436084
S2144001E04368090401F4702119434160704730B4F4
S2144001F043F69924056915F0020F03D1013CF9D165
S21440020001200CE0446814F0020F06D0120402F4F9
S214400210702211430BB141F08071C160002030BCA8
S214400220704732B900EB8100036B23F00103036390
S214400230704700EB8100036B43F001030363704794
S21440024032B900EB8100036B23F00203036370476F
S21440025000EB8100036B43F0020303637047042AFC
S21440026003D06AB1082A16D0704700EB8100036BB2
S21440027023F008030363036B43F0040303637047F0
S21440028000EB8100036B23F008030363036B23F04A
S21440029004030363704700EB8100036B43F00803DD
S2144002A00363E1E700EB81010B6B23F0F0030B6384
S2144002B00B6B1A430A637047431E1944B1FBF0F0B8
S2144002C0431EFE2B94BF00B24FF0FF3070477AB10A
S2144002D010B4144600EB81010B6B23F47F430B6391
S2144002E00A6B42EA04220A6300205DF8044B70471A
S2144002F04FF0FF3070470000014B1860704700BF5A
S214400300EC094020024B1B6803EBC0104254704778
S214400310EC094020024B1B6803EBC010405C704762
S214400320EC0940202DE9F0478418802C02DDC0F10E
S2144003308004E2B222B3CD08A1EBC501012606FA3D
S21440034001F1CEB2012B1DD0002B35D0022B17D198
S2144003500138C7B2D419E4B2DFF890A04FF00009D4
S214400360DFF88C8021462846D04786EA00024B4676
S214400370D2B221462846C047013CE4B2BC42F1D145
S214400380BDE8F0870138C7B2D419E4B2DFF85CA004
S2144003904FF00009DFF8588021462846D04746EA05
S2144003A000024B46D2B221462846C047013CE4B242
S2144003B0BC42F1D1BDE8F0870138C7B2D419E4B2E7
S2144003C0DFF82880CE43DFF8289021462846C047ED
S2144003D006EA00020023D2B221462846C847013C1E
S2144003E0E4B2BC42F1D1BDE8F08700BF250640002C
S2144003F0210540002DE9F8439DF820708BB11C463E
S214400400904606464D1EEDB22C44E4B2DFF81890F6
S2144004103B46424621463046C847013CE4B2AC42E1
S214400420F6D1BDE8F88300BF250340002DE9F04F24
S21440043083B00446884691469B465B7A9BF80820E4
S2144004400021009149464046214DA8479BF8003080
S21440045013B103B0BDE8F08F9BF80820D30812F024
S214400460070F18BF01339BF809A09BF80A70E71BDB
S21440047017FB0AF717FB03F7DBF8043013FA87F786
S2144004801FE06400E4B20135EBB29E4210D9EBB2F5
S21440049008EB0300C0B213F0070F08BF17F8014B74
S2144004A014F0800FEDD0012249460A4B9847E8E702
S2144004B009F101095FFA89F90AF1FF3A1AF0FF0AD1
S2144004C0C7D09BF80860002EF2D000252C46DEE709
S2144004D0F5034000C10540002DE9F8430446904628
S2144004E01D4689460D4F0E4608E06A7A0132424460
S2144004F05FFA82F8B14614F8013F6BB120780A28BB
S214400500F3D00D28F7D02B4642464946B8472B7ABB
S21440051099445FFA89F9EEE7BDE8F8832D04400078
S21440052070B504460D4616461BB90D4B9847B0426B
S21440053015D03246294620460A4B984704F00F000D
S21440054040F0B000084CA047C5F3021040F0100041
S214400550A04705F00F00A0473046044B984770BDB3
S2144005601503400005034000310640005108400096
S2144005702DE9F0410D480E4B98470E4B98474020CA
S2144005800D4B984700254FF001082F460B4E002490
S21440059043463A46E1B22846B0470134802CF7D16C
S2144005A00135EDB2042DF2D1BDE8F081F0094020CE
S2144005B0F902400071064000310640002105400027
S2144005C0C3092AD11F2928D82DE9F04114460546EB
S2144005D0CE08A1EBC601012202FA01F75FFA87F8BE
S2144005E0014630460D4B98470246012C09D064B16F
S2144005F0022C0ED0002329463046094CA047BDE8C1
S214400600F08148EA0002D2B2F4E720EA0702D2B20A
S214400610F0E788EA0002D2B2ECE7704715034000E4
S2144006202105400008B5014B984708BD150340001A
S21440063038B505460822094B5A63094C0121204625
S214400640084B984701231A4629462046064CA047A1
S2144006504FF4FD70054B984738BD00BF00100E4064
S21440066000800040D9014000EF01400001004020DA
S2144006702DE9F843664D4FF400362E61C5F8A0606C
S214400680644B08271F61C3F8A0706E66C5F890607B
S2144006906E656E62C5F880602A6F22F400322A6763
S2144006A06A6F22F400326A675F66C3F890705F65CF
S2144006B05F62C3F880701A6F22F008021A675A6F9A
S2144006C022F008025A671F602E601F632E63DFF811
S2144006D07C8100234FF480024FF0805140464E4CC0
S2144006E0A04700234FF400124FF080514046A047E9
S2144006F000234FF000724FF080514046A047002341
S2144007004FF480024FF080514046A04700234FF4FC
S21440071000124FF080514046A04700234FF0007231
S2144007204FF080514046A0473C4C4FF00209C4F879
S21440073000904FF08008C4F80080636843F00103DF
S21440074063603A4601212046354B984700220121F6
S2144007502046344B9847002201212046324B98478A
S214400760636823F0020363600022012120462F4B7A
S2144007709847636823F080036360636843F0100320
S21440078063602B492B482C4B9847C2B20121204628
S2144007902A4B984720462A4B9847012323606E638E
S2144007A040F6B830274CA0472E6340F6B830A047F6
S2144007B02E63A820244CA0471F20A047D320A04744
S2144007C00020A0474020A047A120A047C820A0471F
S2144007D0DA20A0474846A0478120A0478F20A04760
S2144007E0A420A047A620A047D520A0474046A04723
S2144007F08D20A0471420A047DB20A0474020A047DC
S214400800D920A047F120A047AF20A047BDE8F883F5
S21440081000120E4000100E40290D4000008000409F
S2144008205F0240002302400041024000A502400013
S21440083080D1F00880841E00B9024000CF024000FC
S214400840AD014000010040203106400000140E403B
S21440085038B505460822094B1A63094C0121204643
S214400860084B984701231A4629462046064CA0477F
S2144008704FF4FD70054B984738BD00BF00100E4042
S21440088000800040D9014000EF01400001004020B8
S21440089010B51048104B98473E2100200F4B984704
S2144008A00F4CA0470028FCD00E4B98470E4A0F4BE3
S2144008B09A620F4CA0470028FCD002200D4B984768
S2144008C000200D4B98470D4B98470248024B9847DF
S2144008D010BD00BF00A3E111B9134000C50F400092
S2144008E01910400029104000013F182000060E4015
S2144008F039104000290F4000610F4000AD12400003
S214400900002A54D02DE9F84F924606460F468A44B0
S214400910DFF8B880274DDFF8B89006E0214640461D
S214400920A8470028FAD1BA453ED017F8014B4645AD
S214400930F4D04E4516D0204B9E4219D01F4B9E42B7
S2144009401CD01F4B9E421FD01E4B9E4224D01E4B97
S2144009509E42E8D1DFF87CB021461B48D8470028A5
S214400960FAD1E0E721464846A8470028FAD1DAE718
S21440097021461148A8470028FAD1D4E721460F4817
S214400980A8470028FAD1CEE7DFF848B021460C4801
S214400990D8470028FAD1C6E7DFF838B021460948DC
S2144009A0D8470028FAD1BEE70020BDE8F88F0020DF
S2144009B0704700BF9D104000001A0E40001C0E40BD
S2144009C0004002400080024000C0024000080E4046
S2144009D0000A0E40B51140002DE9F04180B90C46A2
S2144009E09046002A0FDD8F18084E094D3068214684
S2144009F02B6898470134BC42F8D14046BDE8F081A8
S214400A004FF0FF38F9E78046F7E700BFE80D402093
S214400A10E00D40200138022815D82DE9F0410E4659
S214400A2014469AB10D46DFF838800C4FD8F80000CF
S214400A3015F8011B3B68984700280ADBA81B013CB9
S214400A40F4D1BDE8F0814FF0FF3070471046BDE866
S214400A50F0814FF0FF30BDE8F08100BFE40D40204C
S214400A60E80D4020F8B54FF400425C4B5A60BFF3A7
S214400A704F8FBFF36F8F5A4B0022C3F850225A69EC
S214400A8042F400325A61BFF34F8FBFF36F8FD3F8F3
S214400A908070C7F34E3607F007000430C7F3C90727
S214400AA0B7FA87FE0EF01F0EBFF34F8F4FF0FF349E
S214400AB004FA00FC06FA00F004FA0EF407FA0EFEFA
S214400AC01D463A46734640EA0301C5F86012013AAD
S214400AD02344B2F1FF3FF6D1013E6044B6F1FF3FFA
S214400AE0EFD1BFF34F8F3E4B5A6942F480325A6182
S214400AF0BFF34F8FBFF36F8F3A4A3B495160A1F522
S214400B0080715160BFF34F8FBFF36F8FD3F8902241
S214400B1022F00102C3F89022D3F8942222F0010278
S214400B20C3F89422BFF34F8FBFF36F8F0A202F4C2A
S214400B30A0470B20A0470C20A0471020A04711201C
S214400B40A0472B4B4FF480721A61C3F8A0201A635B
S214400B50A3F580634FF400625A61C3F8A0205A663A
S214400B60C3F890205A651A62C3F88420196F21F49E
S214400B7000611967596F21F400615967C3F8C020B6
S214400B80C3F8D420C3F8B0204FF400121A66C3F856
S214400B9090205A655A62C3F88020196F21F40011DC
S214400BA01967596F21F4001159675A60114AD2F8F3
S214400BB0143143F01003C2F814310F4B10221A665A
S214400BC0C3F890205A655A62C3F88020196F1143C3
S214400BD01967596F114359675A60F8BD50180E404F
S214400BE000ED00E0000C0E400C08005A4910400092
S214400BF000120E400080084000100E40C0F88410DE
S214400C0053004FF40042B2FBF3F2013AC2F30D0236
S214400C10C0F88C207047016370474163704721F0ED
S214400C200061B1F1405F05D1836B134214BF0120D0
S214400C3000207047C36BF8E74264B1F1C05F3AD01A
S214400C4013D8B1F1006F25D0B1F1805F0AD1036FA0
S214400C5013430367436F416F0B4023EA0203436726
S214400C60426070470029FBD17047B1F1205F21D028
S214400C7009D8B1F1005FF3D1036F13430367436FA5
S214400C8013434367ECE7B1F1405F13D0B1F1605FC7
S214400C9010D0E5E710B4016F046FD34321401C46E3
S214400CA019400167436F416F0B40234043674260E2
S214400CB05DF8044B7047036F016F0B4023EA020355
S214400CC00367436F13434367CAE7416412F0010F5B
S214400CD00DD1016612F00A0F0BD0016212F0020F1E
S214400CE009D112F0080F08D0C0F8841005E041661C
S214400CF0F0E74162F2E7C0F880104161016070475A
S214400D0010B4019C41644CB901664BB101654AB9C7
S214400D104163016101605DF8044B70474166F4E74A
S214400D204165F4E70163F4E770B582B005461646C0
S214400D301C46B1F1005F14D00AD9B1F1405F24D00F
S214400D40B1F1605F21D0B1F1205F17D000201AE0EA
S214400D50B1F1805F05D0B1F1C05F02D0B1F1006F54
S214400D60F4D132462846114B984714F0010F02D171
S214400D702E66012007E06E66012004E01A463146E2
S214400D800B4B9847012002B070BD04F0010300935E
S214400D90C4F38003B1F1605F14BF002201223146E4
S214400DA02846044CA0470120EDE700BF390C400020
S214400DB0CB0C4000010D4000836B0B4214BF01205A
S214400DC00020704712F0100F12D0C0F8B01012F08A
S214400DD0200F07D0C0F8D41012F0400F05D0C0F84E
S214400DE0C0107047C0F8D010F6E7C0F8C41070477F
S214400DF0C0F8B410704701647047C06C7047806C90
S214400E00704700002DE9F041044688460E4B98474F
S214400E10054620460D4B9847054013D00C4C04F130
S214400E20600603E0B4420DD010345DB12068404502
S214400E30F8D161682942F5D0E3689847636825EAA7
S214400E400305EFE7BDE8F081FB0D4000FF0D4000D5
S214400E50F00B4020F8B5184C2668062E2AD84FF0DE
S214400E60000C6446154F04E00134E4B2A446A642A2
S214400E7009D3A64625017D598D42F5D107EB0415C9
S214400E806D689542F0D10D4D4FEA0E1E05EB0E04EF
S214400E9045F80E106260A3600699E160013666452B
S214400EA005D011461A46064B98470020F8BD024921
S214400EB00E60F6E70120F8BD600C4020F00B4020A5
S214400EC0C50D400008B50A210148024B984708BDA9
S214400ED0000E0E40050E400008B50B210148024B9F
S214400EE0984708BD00100E40050E400008B50C217E
S214400EF00148024B984708BD00120E40050E4000C0
S214400F0008B510210148024B984708BD00140E4012
S214400F10050E400008B511210148024B984708BD10
S214400F2000160E40050E4000032811D0042812D0AB
S214400F3002280CBF4FF480710021084A136B23F43B
S214400F4040730B431363936E13F0080FFBD0704748
S214400F504FF44071F1E74FF40071EEE700060E40A3
S214400F60174A136B23F0700318431063936E13F005
S214400F70080F0AD14FF4805311498A6E12F0080FB9
S214400F8003D1013BF9D1012070470D4A136B23F082
S214400F90030343F002031363936E13F0080F0AD162
S214400FA04FF4805306498A6E12F0080F05D1013B74
S214400FB0F9D101207047002070470020704700BFDD
S214400FC000060E40A0B90E48036A090289B20D4ACF
S214400FD01A400D4B1343194301620246936E13F0B9
S214400FE0010FFBD0064A116A084B0B431362704749
S214400FF003490B6A064A1A40064B13430B62704776
S21440100000060E40FCFFC8FF010037000000370115
S214401010FCFFC8FE02003701024B986E00F4803099
S214401020704700BF00060E404FF00052014B9A62D8
S214401030704700BF00060E40024B986E00F002005C
S214401040704700BF00060E403F281ED81F280CD809
S214401050114B9A6901238340934318D0012303FA26
S21440106000F00D4B18610020704720380A4BD3F82B
S21440107008210123834093430BD0012303FA00F059
S214401080054BC3F800010020704701207047002040
S21440109070470020704700BF00060E40436913F0BB
S2144010A0020F02D0C161002070470120704743699B
S2144010B013F0010F03D083690B70002070470120A6
S2144010C0704710B40B01934214D9C9004B0803EB88
S2144010D0C202B2FBF1F2D3085C1E4FF6FE718C42A0
S2144010E001D9012017E0416841F4002141600CE03D
S2144010F0012010E0590801EBC202B2FBF3F2D3081C
S2144011005C1E4FF6FE718C42F2D8120402F4E022C6
S2144011101A43026200205DF8044B7047084BC0F843
S214401120E4300023436043628362882303602423C1
S21440113003604FF4807303604FF4002303607047EE
S2144011400041535570B505460C4616460F4B98471A
S21440115000220F4B1A60A4B13246216828460D4B38
S2144011609847024678B96368A1680B4321690B43E8
S214401170E1680B4306490B6069680B436B60104699
S21440118070BD0122FBE70122F9E700BF1D114000B8
S214401190640C4020C3104000402303607047102377
S2144011A0036070474069C0F340007047406900F0F4
S2144011B001007047436913F0020F04D0C1F30801E1
S2144011C0C1610020704701207047436913F0010F4A
S2144011D005D08369C3F308030B60002070470120E5
S2144011E07047FEE700B583B0254B264A9A4210D09A
S2144011F0254B234A9A420CD2013B9B1A23F0030309
S214401200043313441F4951F8040B42F8040B9A4226
S214401210F9D11E4B1E4A9A420AD2013B9B1A23F032
S214401220030304331344002142F8041B9342FBD1CA
S214401230184A194B23F07F039360EFF31083B3FAF9
S21440124083F35B09019372B6BFF35F8F0022134BA3
S2144012501A700199124A136843F470031360BFF37F
S2144012604F8FBFF36F8F29B101220C4B1A70BFF31B
S2144012705F8F62B60B4B98470B4B9847FEE700BF15
S2144012800000402094764000D00940205C0E40206C
S214401290D009402000ED00E000004000180040204B
S2144012A088ED00E0593A4000053940003B4B1B6B47
S2144012B003F00303012B1DD083B1022B36D0374BEE
S2144012C01B6B03F07003702B5FD0344B1A6B3449A2
S2144012D0C2F302120B68D3400B607047314B5B6918
S2144012E013F0800F14BF4FF400424FF4FA422C4BD9
S2144012F01A60E4E7294B1B6A13F0807F03D02A4A22
S214401300274B1A60DBE7294A254B1A60234B1B6A9A
S21440131003F07003102B05D0202BD0D1224A204B4F
S2144013201A60CCE7224A1E4B1A60C8E71B4B1B6A62
S21440133013F0807F16D01C4A194B1A60174B1B6B54
S21440134003F00303022BBAD1144A916A926A1448F6
S214401350C1F30A41036801FB0333D2B2B3FBF2F395
S2144013600360ACE7114A0E4B1A600C4B1B6A03F045
S2144013707003102B05D0202BE0D10B4A084B1A6087
S214401380DCE70B4A064B1A60D8E7054A136809495A
S214401390A1FB03135B081360704700BF00060E40B6
S2144013A01C00402010180E40001BB70000093D00EE
S2144013B000127A00ABAAAAAA164B984213D9164B2B
S2144013C0984215D9154B984216D9154B984217D9BD
S2144013D0144B984218D9144B984294BF134A144A57
S2144013E0144B1A6070474FF08062124B1A60704779
S2144013F0114A104B1A607047104A0E4B1A607047DD
S2144014000F4A0C4B1A6070474FF00422094B1A6083
S214401410704700BFBFF35E017FE7BD023FDB1C04A1
S214401420FFCE7B05BFC2DA067FB63908000500044A
S21440143000060004000C0E400001000400020004F8
S214401440000300040A4B1B6853B1094B1B681A186B
S2144014500849914208DB1046054A10601846704716
S214401460054A034B1A60F0E74FF0FF30704700BF65
S214401470680C4020FCFF4520603040204FF0FF3095
S21440148070474FF400534B60002070470120704770
S2144014900020704700F1080343604FF0FF3282603F
S2144014A0C3600361002303607047002303617047F5
S2144014B043684B609A688A609A6851609960086190
S2144014C0036801330360704730B40D68B5F1FF3FE1
S2144014D002D000F1080202E0026904E01A465368AE
S2144014E01C68A542FAD253684B6099608A60516086
S2144014F0086103680133036030BC70470369426883
S214401500816891608268416851605A68904205D00F
S21440151000220261186801381860704782685A6075
S214401520F6E700000D4B1B68B3F1FF3F0AD04FF0C3
S214401530800372B683F31188BFF36F8FBFF34F8F6C
S21440154062B6FEE74FF0800372B683F31188BFF3AE
S2144015506F8FBFF34F8F62B6FEE700BF200040207C
S21440156006480068006880F3088862B661B6BFF334
S2144015704F8FBFF36F8F00DF00BF000008ED00E025
S214401580DFF80C00016841F470010160704700000C
S21440159088ED00E04FF0807340F8043C40F8081CAB
S2144015A0054B40F80C3C40F8202C6FF0020340F806
S2144015B0243C4438704700BF25154000064B196848
S2144015C00868B0E8F04F80F30988BFF36F8F4FF09C
S2144015D0000080F311887047740C4020704700BFAD
S2144015E04FF0800372B683F31188BFF36F8FBFF35B
S2144015F04F8F62B60B4A136801331360012B0FD12D
S214401600094B1B6813F0FF0F0AD04FF0800372B6E9
S21440161083F31188BFF36F8FBFF34F8F62B6FEE739
S214401620704700BF2000402004ED00E00A4B1B68D6
S21440163053B94FF0800372B683F31188BFF36F8FB0
S214401640BFF34F8F62B6FEE7013B034A13600BB908
S21440165083F31188704700BF20004020EFF30980D5
S214401660BFF36F8F154B1A681EF0100F08BF20EDA2
S214401670108A20E9F04F10604DF8043D4FF080008E
S21440168072B680F31188BFF34F8FBFF36F8F62B689
S21440169001F000F94FF0000080F3118808BC19688B
S2144016A00868B0E8F04F1EF0100F08BFB0EC108A84
S2144016B080F30988BFF36F8F704700BF740C4020DB
S2144016C0704700BF08B5EFF311834FF0800272B643
S2144016D082F31188BFF36F8FBFF34F8F62B6054B0F
S2144016E0984718B14FF08052034B1A60002383F39B
S2144016F0118808BD0125400004ED00E0034A044B74
S2144017001A600722043B1A60704700BFBF270900D3
S21440171014E000E000B583B0254B1A78D2B20192AF
S214401720FF221A701B78DBB28DF803309DF8033029
S21440173003F080031F4A137007221F4B1A609DF860
S214401740033013F0800F10D0062200E00A469DF8C2
S21440175003305B00DBB28DF803309DF80330511E3A
S21440176013F0800FF2D1144B1A60134A13681B0211
S21440177003F4E0631360019BDBB20D4A13700F4B1A
S2144017801A6842F460021A601A6842F060421A60B0
S2144017900B4B984700220B4B1A600B4B98470B4A53
S2144017A0136843F040431360094B9847094B9847EA
S2144017B000E400E06C0C4020700C402020ED00E07F
S2144017C0FD164000200040208115400034EF00E028
S2144017D06115400025154000EFF305830F2B11D906
S2144017E0124A9B5CDBB2124A12789A420AD94FF0F0
S2144017F0800372B683F31188BFF36F8FBFF34F8FAA
S21440180062B6FEE70B4B1B6803F4E0630A4A1268B5
S21440181093420AD94FF0800372B683F31188BFF320
S2144018206F8FBFF34F8F62B6FEE77047F0E300E07E
S2144018306C0C40200CED00E0700C402010B50446C7
S214401840064B98472046064B98470446054B984714
S2144018500CB1204610BD044B9847FAE7E5244000FB
S214401860D13A40004D2640002B34400048B110B5D8
S2144018700446044B98472046034B9847034B9847EB
S21440188010BD7047E5244000E13A40004D26400038
S21440189038B504461546026C5AB90368002B2ED15B
S2144018A040681B4B984700236360A36B0133A363D8
S2144018B038BD6DB98068174B9847A368226C1344AF
S2144018C0A360626893421CD32368A3600020ECE7C1
S2144018D0C068104B9847236C5B42E2681A44E2604B
S2144018E021688A4202D262681344E360022D0AD11C
S2144018F0A36B53B1A36B013BA3630020D5E7002045
S214401900D3E70020D1E70020CFE70020CDE700BF97
S214401910952C40005140400030B583B00190446D56
S21440192074B1A26BE36B9A4215D34FF0800372B644
S21440193083F31188BFF36F8FBFF34F8F62B6FEE716
S2144019404FF0800372B683F31188BFF36F8FBFF3F7
S2144019504F8F62B6FEE7A26B934203D80025284617
S21440196003B030BD0A4601A920460B4B98470546B2
S214401970A36CB3F1FF3F0AD1636A002BEFD004F1AA
S2144019802400064B9847002818BF0125E7E7A36CBC
S2144019900133A364E3E700BF91184000692A400082
S2144019A0026C72B110B50346C4681444C460406803
S2144019B0844201D31868D8600846D968014B9847D6
S2144019C010BD704751404000F8B50446224B98473A
S2144019D0A36C002B1BDD214D214F224E0BE0636A8A
S2144019E0ABB104F12400B04778B9A36C013BA364C3
S2144019F0A36C002B0BDD636D002BF0D0002120463E
S214401A00A8470128F1D1B847EFE7B847EDE74FF0D0
S214401A10FF33A364144B98470F4B9847636C002BD7
S214401A2014DD236993B104F110060E4D0C4F07E008
S214401A30636C013B6364636C002B07DD23692BB149
S214401A403046A8470028F3D0B847F1E74FF0FF33B9
S214401A506364054B9847F8BDE115400019194000EE
S214401A60C52B4000692A40002D16400038B508B303
S214401A7004460D461D4B98472268216CE36B03FBDA
S214401A8001F3D01860600020A063A2605B1A134484
S214401A90E3604FF0FF336364A364FDB923692BB161
S214401AA004F11000124B984701280ED0114B98476E
S214401AB0012038BD4FF0800372B683F31188BFF320
S214401AC06F8FBFF34F8F62B6FEE74FF080520A4BE0
S214401AD01A60BFF34F8FBFF36F8FE7E704F1100034
S214401AE0064DA84704F12400A847DFE7E11540006B
S214401AF0692A40002D16400004ED00E09514400091
S214401B00F8B550B94FF0800372B683F31188BFF32F
S214401B106F8FBFF34F8F62B6FEE7064617460D46F9
S214401B2089B101FB00F05930124B98470446E8B99A
S214401B304FF0800372B683F31188BFF36F8FBFF305
S214401B404F8F62B6FEE758200A4B98470446002857
S214401B50EED02060E663256401212046064B984778
S214401B6084F85070002363652046F8BD00F15803A2
S214401B700360EFE73D1840006D1A40002DE9F04F36
S214401B8085B00192B8B1044601B3022B2CD01D4655
S214401B908846664B9847002834D1019B002B38D0A6
S214401BA04FF0800372B683F31188BFF36F8FBFF395
S214401BB04F8F62B6FEE74FF0800372B683F311880C
S214401BC0BFF36F8FBFF34F8F62B6FEE7026C002AFB
S214401BD0DBD04FF0800372B683F31188BFF36F8F6C
S214401BE0BFF34F8F62B6FEE7E26B012ACFD04FF0CD
S214401BF0800372B683F31188BFF36F8FBFF34F8FA6
S214401C0062B6FEE700274A4EDFF850A1DFF82C9177
S214401C1042E00027F7E72A4641462046454B98478C
S214401C20636D9BB129462046434B9847012807D110
S214401C304FF08052414B1A60BFF34F8FBFF36F8F08
S214401C403F4B9847012005B0BDE8F08F636A73B1FB
S214401C5004F124003B4B98470128F1D14FF08052C5
S214401C60364B1A60BFF34F8FBFF36F8FE8E70028FD
S214401C70E6D04FF08052314B1A60BFF34F8FBFF320
S214401C806F8FDDE72E4B98470020DCE720462E4B33
S214401C9098472E4B98470127B047A26BE36B9A4272
S214401CA0B9D3022DB7D0019B002BEBD00FB902A8B9
S214401CB0D047234B9847264B9847B047636CB3F1C1
S214401CC0FF3F01D100236364A36CB3F1FF3F01D112
S214401CD00023A3641A4B984701A902A81D4B9847B6
S214401CE0E0B9B047D4F838B0E76B154B9847BB45DA
S214401CF0CCD1019904F11000174B98472046124B5F
S214401D009847124B98470028C5D14FF08053C9F8E2
S214401D100030BFF34F8FBFF36F8FBCE720460A4BB0
S214401D2098470A4B984700208DE700BFD12B4000CC
S214401D30E1154000911840001919400004ED00E0FC
S214401D402D164000692A4000C91940004D26400023
S214401D50E5244000312B400065294000012B40001F
S214401D60002836D02DE9F041044600293CD0022B0D
S214401D7048D01E4615468846354B9847EFF31187A0
S214401D804FF0800372B683F31188BFF36F8FBFF3B3
S214401D904F8F62B6A26BE36B9A4201D3022E4FD1AD
S214401DA03246414620462B4B9847A36CB3F1FF3F43
S214401DB041D1636D002B33D031462046264B9847A1
S214401DC0002D3FD001283DD1286087F31188BDE81B
S214401DD0F0814FF0800372B683F31188BFF36F8FA4
S214401DE0BFF34F8F62B6FEE7006C0028BFD04FF0BF
S214401DF0800372B683F31188BFF36F8FBFF34F8FA4
S214401E0062B6FEE7E06B0128B3D04FF0800372B6AF
S214401E1083F31188BFF36F8FBFF34F8F62B6FEE731
S214401E20636A8BB104F124000C4B984775B168B1D6
S214401E3001202860C9E7A36C0133A3640120C4E7EE
S214401E400020C2E70120C0E70120BEE70120BCE732
S214401E50D91740009118400019194000692A4000DF
S214401E6070B170B50446036CABB14FF0800372B6E8
S214401E7083F31188BFF36F8FBFF34F8F62B6FEE7D1
S214401E804FF0800372B683F31188BFF36F8FBFF3B2
S214401E904F8F62B6FEE7036833B30D46254B98472F
S214401EA0EFF311864FF0800372B683F31188BFF3C9
S214401EB06F8FBFF34F8F62B6A26BE36B9A4231D2FD
S214401EC0A36B0133A363A36CB3F1FF3F25D1636DCE
S214401ED0C3B100212046184B98472DB3012823D183
S214401EE0286086F3118870BD4368002BD5D04FF02C
S214401EF0800372B683F31188BFF36F8FBFF34F8FA3
S214401F0062B6FEE7636A8BB104F124000B4B984738
S214401F1075B168B101202860E3E7A36C0133A36480
S214401F200120DEE70020DCE70120DAE70120D8E7E1
S214401F300120D6E7D917400019194000692A400009
S214401F402DE9F04784B0019298B10446E1B1984635
S214401F500F46614B984728BB019B53B34FF0800315
S214401F6072B683F31188BFF36F8FBFF34F8F62B69D
S214401F70FEE74FF0800372B683F31188BFF36F8F8E
S214401F80BFF34F8F62B6FEE7026C002ADFD04FF0F9
S214401F90800372B683F31188BFF36F8FBFF34F8F02
S214401FA062B6FEE700264D4DDFF860A1DFF83C91B3
S214401FB04BE00026F7E7E56839462046484B984709
S214401FC0B8F1000F1DD1A36B013BA363236813B97F
S214401FD0444B9847606023696BB104F11000424B54
S214401FE09847012807D14FF08052404B1A60BFF304
S214401FF04F8FBFF36F8F3E4B9847012004B0BDE82C
S214402000F087E560636A002BF5D004F12400364B78
S21440201098470028EFD04FF08052344B1A60BFF3F9
S2144020204F8FBFF36F8FE6E7314B98470020E5E7C9
S214402030A84760682F4B98472D4B984730E020467E
S2144020402D4B98472D4B98470126A847A36B002B4E
S214402050B1D1019B002BE7D00EB902A8D047244B44
S2144020609847274B9847A847636CB3F1FF3F01D189
S21440207000236364A36CB3F1FF3F01D10023A36444
S2144020801B4B984701A902A81E4B9847E8B9A8479A
S214402090A66B174B9847002ED1D12368002BC7D08C
S2144020A0019904F12400184B98472046124B984754
S2144020B0124B98470028C7D14FF08053C9F80030DC
S2144020C0BFF34F8FBFF36F8FBEE720460A4B98474C
S2144020D00A4B9847002091E7D12B4000E11540007D
S2144020E0A1194000512D4000692A400004ED00E04F
S2144020F02D164000F12B4000C91940004D264000E7
S214402100E5244000312B400065294000012B40006B
S21440211010B40B4B1B6853B10123094C54F83320C1
S21440212032B10133082BF9D15DF8044B70470023D8
S214402130034A42F8331002EBC3035860F4E700BF8B
S214402140EC0D402070B504460D4616460F4B98479A
S214402150636CB3F1FF3F0BD0A36CB3F1FF3F0AD0E3
S2144021600B4B9847A36B4BB120460A4B984770BD24
S21440217000236364F0E70023A364F1E73246294670
S21440218004F12400044B9847EEE700BFE1154000F9
S2144021902D164000C9194000E9294000084B1B682D
S2144021A01B683BB1064B1B68DB68DB685A68054B0F
S2144021B01A6070474FF0FF32024B1A60704700BFFC
S2144021C0780C4020240D402010B50F4B1B685860FB
S2144021D00E4B1B6898420ED304460D4B18680A4BAC
S2144021E0196804310B4B98470B4B1B689C4201D235
S2144021F0094B1C6010BD094B1868034B1968043125
S214402200044B984710BD00BF740C40206C0D402016
S214402210780C4020C9144000240D40207C0C4020FF
S2144022202DE9F04F83B00C9DDDF834A00E9E60B1D2
S214402230042D15D94FF0800372B683F31188BFF38F
S2144022406F8FBFF34F8F62B6FEE74FF0800372B6D4
S21440225083F31188BFF36F8FBFF34F8F62B6FEE7ED
S2144022600190984691460F4636B99000624B984783
S2144022700646002800F09E8058205F4B984704464C
S214402280002800F0948006634FEA8902A521304674
S2144022905A4B98476FF040464E44236B03EB8603F9
S2144022A023F007063B7884F834303B78002B40F028
S2144022B08480002784F83D70E562A564E76404F1F5
S2144022C004094846DFF884B1D84704F11800D847D7
S2144022D02461C5F10503A3616462276584F85470E0
S2144022E0424601993046464B98472060BAF1000F67
S2144022F001D0CAF80040434B9847434A136801331D
S2144023001360424B1B68002B66D1404B1C60136821
S214402310012B21D13E4F38463E4EB04707F11400C0
S214402320B04707F12800B04707F13C00B04707F137
S2144023305000B047DFF818814046B047364F384621
S214402340B0473648B0473648B0473648B047364B71
S214402350C3F80080354B1F60354A1368013313605D
S2144023602364E06A334A1168012383400B431360B9
S21440237000EB80004946264B03EB80002E4B9847E7
S2144023802E4B98472E4B1B68002B31D01F4B1B689B
S214402390DB6A9D422ED94FF080522A4B1A60BFF31B
S2144023A04F8FBFF36F8F012003B0BDE8F08F3046EC
S2144023B0254B98474FF0FF30F6E73B4604F1340292
S2144023C00937597802F8011F13F8011F00293FF416
S2144023D070AFBB42F5D16CE7194B1B68002BBBD1E5
S2144023E00A4B1B68DB6A9D42B6D3084B1C60B3E7BA
S2144023F00120D9E70120D7E73D184000854140003D
S21440240095154000E1154000E40C4020740C402037
S214402410800C402095144000100D40202C0D40208C
S214402420580D4020440D4020780C40207C0C402025
S214402430F00C4020F80C4020B11440002D1640000F
S214402440400D402004ED00E06D184000AB14400005
S214402450FC0C402010B584B00023039302930193F4
S21440246000934FF4006217491748184CA0470128BC
S2144024700BD020BB4FF0800372B683F31188BFF3B6
S2144024806F8FBFF34F8F62B6FEE7114B9847012818
S214402490EFD14FF0800372B683F31188BFF36F8F8E
S2144024A0BFF34F8F62B64FF0FF320A4B1A600122DD
S2144024B0094B1A600022094B1A60094B984704B032
S2144024C010BD00BF20744000FD2740002122400080
S2144024D03D2E4000240D4020400D40206C0D4020F5
S2144024E015174000024A136801331360704700BF57
S2144024F0EC0C4020014B1868704700BF6C0D402024
S2144025002DE9F047424B1B68002B78D1414B1A68A7
S21440251001321A601E68D6B93F4B1B681B6853B120
S2144025204FF0800372B683F31188BFF36F8FBFF30B
S2144025304F8F62B6FEE7384A1168384B186810600D
S2144025401960374A136801331360364B9847364B49
S2144025501B689E4218D20024344B1B68DB6A03EB90
S2144025608303334A52F82330022B28BF0124314BD1
S2144025701B680BB9304B9847304B1B68002B0CBF81
S21440258020460120BDE8F0870024DFF88C90DFF875
S214402590B8802B4F1FE04FF0FF32234B1A60DBE72B
S2144025A0214A1360D8E705F11800C047E86A3A6840
S2144025B00123834013433B6000EB800051461C4B95
S2144025C003EB80001F4B9847184B1B68EA6ADB6A90
S2144025D09A4228BF0124D9F800301B68002BDAD075
S2144025E0D9F80030DB68DD686B689E42D8D305F1C9
S2144025F0040A5046C047AB6A002BD4D1D6E70D4AF2
S2144026001368013313600C4B98470024B4E700BFAF
S214402610EC0C40206C0D4020780C40207C0C402078
S214402620280D40209D214000240D4020740C402061
S214402630800C4020E80C402029344000700D40209B
S214402640F80C4020B1144000FD1440002DE9F8433A
S214402650384B1B6853B94FF0800372B683F311882A
S214402660BFF36F8FBFF34F8F62B6FEE7324B98478C
S214402670304B1A68013A1A601B68002B55D12F4B15
S2144026801B68002B32D100242D4B98472046BDE8CE
S214402690F883FB68DC6804F11800B04704F10408CE
S2144026A04046B047E06A2A680123834013432B60C4
S2144026B000EB8000414609EB8000224B9847224BB6
S2144026C01B68E26ADB6A9A420CD23B68002BE0D178
S2144026D01E4B1B68DBB11D4B1B68C3B11C4E1D4D0A
S2144026E01A4C0EE001221B4B1A60EEE71A4F1B4EA7
S2144026F01B4DDFF87490E8E72368013B23602368AE
S2144027002BB1B0470028F7D001232B60F4E7114BDC
S2144027101B68012B0BD14FF08052124B1A60BFF34F
S2144027204F8FBFF36F8F0124AEE70024ACE7002441
S214402730AAE700BFEC0C4020E1154000E40C402026
S2144027402D164000B1144000740C4020E80C402088
S21440275001254000700D40202C0D4020FD14400007
S214402760F80C402004ED00E0800C402010B5002816
S21440277029D00446184B1B6853B14FF0800372B6FD
S21440278083F31188BFF36F8FBFF34F8F62B6FEE7B8
S214402790124B9847124B1B681C44124B1868043067
S2144027A0114B984748B90F4B1A6810490B68D06AC6
S2144027B00122824023EA02030B6020460C4B9847D6
S2144027C00C4B984738B94FF080520B4B1A60BFF30A
S2144027D04F8FBFF36F8F10BDEC0C4020E5244000B8
S2144027E06C0D4020740C4020FD144000F80C402036
S2144027F0C92140004D26400004ED00E080B5DFF8DA
S2144028008880194EDFF884902AE0184B1B68012B0D
S2144028101ED82B68002BF8D0C0473468B847002C29
S214402820F7D0134B9847F368DC68201D114B984748
S214402830114A1368013B13602B68013B2B600F4B1A
S2144028409847206BDFF848A0D0472046D047E0E7BF
S2144028504FF08053C9F80030BFF34F8FBFF36F8FF0
S214402860074D084FD5E700BF580D4020800C40204C
S214402870E1154000FD144000E40C40202D164000B9
S214402880F40C40204D264000E524400004ED00E0D6
S2144028906D1840002D4B1B68002B2CD110B5002224
S2144028A02B4B1A602B4B1B681B6B1A68B2F1A53F6B
S2144028B003D15A68B2F1A53F21D0264B1868196853
S2144028C03431254B9847254B1B68B3FA83F3DBB26C
S2144028D0C3F11F0303EB8301214A52F82120BAB902
S2144028E04FF0800372B683F31188BFF36F8FBFF348
S2144028F04F8F62B6FEE70122154B1A6070479A6802
S214402900B2F1A53FD9D1DB68B3F1A53FD5D1DAE71F
S214402910134A9900C81802EB800044686468446013
S214402920194402460832944209D003EB83030C4A0A
S21440293002EB83035B68DA68064B1A6010BD60687A
S214402940074A02EB81025060EFE700BFEC0C4020E4
S214402950700D4020740C402011344000F80C40208C
S214402960800C402038B5E0B10C46174D2968183128
S214402970164B984728680430154B984740B92A6844
S21440298014490B68D06A0122824023EA02030B6096
S214402990B4F1FF3F10D0104B186820440F4B9847B7
S2144029A038BD4FF0800372B683F31188BFF36F8F44
S2144029B0BFF34F8F62B6FEE7034B196804310848F1
S2144029C0084B984738BD00BF740C4020C9144000DF
S2144029D0FD144000F80C40206C0D4020C9214000FA
S2144029E0440D4020B1144000E8B170B515460C4681
S2144029F0164E31681831164B984730680430154BE0
S214402A00984740B9326814490B68D06A0122824020
S214402A1023EA02030B60012D10D0104B18682044A7
S214402A200F4B984770BD4FF0800372B683F3118802
S214402A30BFF36F8FBFF34F8F62B6FEE7034B196845
S214402A4004310848024B984770BD00BF740C4020C4
S214402A50B1144000FD144000F80C40206C0D40209E
S214402A60C9214000440D402038B5C368DC6824B313
S214402A7004F1180528461A4B98471A4B1B683BBB6F
S214402A80251D2846164B9847E06A174A11680123C9
S214402A9083400B43136000EB80002946134B03EB47
S214402AA08000134B9847134B1B68E26ADB6A9A42D6
S214402AB013D90120104B186038BD4FF0800372B612
S214402AC083F31188BFF36F8FBFF34F8F62B6FEE775
S214402AD029460A48064B9847E5E7002038BD00BF20
S214402AE0FD144000EC0C4020F80C4020800C4020A8
S214402AF0B1144000740C4020700D40202C0D402036
S214402B0030B1094A12680260084A1268426070474B
S214402B104FF0800372B683F31188BFF36F8FBFF315
S214402B204F8F62B6FEE700BF280D40206C0D402058
S214402B3038B5C0B1044609B30D461D4B98471D4BEA
S214402B401A682B68B3F1FF3F2ED01B4909682068EE
S214402B50884202D061688A4228D26168501A83420D
S214402B6017D801241CE04FF0800372B683F3118817
S214402B70BFF36F8FBFF34F8F62B6FEE74FF0800311
S214402B8072B683F31188BFF36F8FBFF34F8F62B671
S214402B90FEE79B1A0B442B602046084B98470024C0
S214402BA0074B9847204638BD0024F9E70124F7E74D
S214402BB0E11540006C0D4020280D4020012B4000C0
S214402BC02D1640000122014B1A607047700D4020C0
S214402BD0054B1B6833B1054B1B68002B0CBF02200E
S214402BE00020704701207047400D4020EC0C4020EC
S214402BF0002844D038B50446C26A21490968C96AE3
S214402C008A4214D28169002905DB1D490968C96AD0
S214402C10C1F10501816102EB82021A4901EB820291
S214402C206169914204D0164A1268D26AE26238BD9F
S214402C30251D2846144B984770B9E36A03EB830179
S214402C40104A52F821203AB910480268012101FA88
S214402C5003F322EA03030360094B1B68D86AE06269
S214402C600A4A1168012383400B43136000EB80003F
S214402C702946044B03EB8000054B984738BD704708
S214402C80740C4020800C4020FD144000F80C40207E
S214402C90B114400000284DD038B50446274A126883
S214402CA090420AD04FF0800372B683F31188BFF388
S214402CB06F8FBFF34F8F62B6FEE7C26C52B94FF0CC
S214402CC0800372B683F31188BFF36F8FBFF34F8FC5
S214402CD062B6FEE7013AC264C06AA16C88422BD055
S214402CE052BB251D2846164B984768B9E16A01EB4A
S214402CF08102144B53F8223033B91348036801223B
S214402D008A4023EA02030360A06CE062C0F1050338
S214402D10A3610D4A1168012404FA00F30B431360C3
S214402D2000EB80002946074B03EB8000074B984793
S214402D30204638BD00207047002038BD740C402027
S214402D40FD144000800C4020F80C4020B114400098
S214402D50054B1B6823B1044B1A68D36C0133D3640C
S214402D60014B1868704700BF740C402008B541609E
S214402D70006191420CD8D21A83699A4201D301204D
S214402D8008BD011D094B1868094B9847002008BD2F
S214402D909A4203D2994201D3012008BD011D054B3A
S214402DA01868034B9847002008BD00BF780D4020A8
S214402DB0C9144000740D402070B5154B9847154B0C
S214402DC01B6813B1144B984770BD144D2846144EDB
S214402DD0B047144C2046B047134B1D60134B1C6045
S214402DE0002210210520124B98470A4B186018B154
S214402DF01049114B9847E5E74FF0800372B683F3CE
S214402E001188BFF36F8FBFF34F8F62B6FEE700BFE8
S214402E10E1154000A80D40202D1640007C0D4020B6
S214402E2095144000900D4020740D4020780D4020B1
S214402E30011B4000287440001121400010B584B0AA
S214402E400F4B98470F4B1B6873B1002303930293B5
S214402E500193042200924FF480520B490B480C4CCD
S214402E60A04708B104B010BD4FF0800372B683F39C
S214402E701188BFF36F8FBFF34F8F62B6FEE700BF78
S214402E80B92D4000A80D402030744000BD2F4000B2
S214402E9021224000D8B130B585B015460446154AC3
S214402EA0106820B31A46009101950294052919DC52
S214402EB0114B984702284FF000030CBF089A1A4659
S214402EC069460C4800680D4CA04705B030BD4FF031
S214402ED0800372B683F31188BFF36F8FBFF34F8FB3
S214402EE062B6FEE700236946054CA047EDE70020A2
S214402EF0EBE700BFA80D4020D12B40007D1B4000D3
S214402F00611D40002DE9F04782B08046244B98472B
S214402F100746244B1B6898421BD30023C8F8003052
S214402F20204B1F60384602B0BDE8F0870021009174
S214402F300B46524620461C4CA04760B94FF08003D3
S214402F4072B683F31188BFF36F8FBFF34F8F62B6AD
S214402F50FEE7164D164E2B681A68C2B1DB68D3F8EA
S214402F6000A0DC6804F104094846B047636A20467E
S214402F709847E369012BEED1A36953449A45D5D2CD
S214402F8063602461494628680A4B9847E3E70A4A43
S214402F9010680649086013600123C8F80030BFE790
S214402FA0F5244000A40D4020952E4000740D40208E
S214402FB0FD144000C9144000780D40202DE9F0472C
S214402FC088B0754E754FDFF8FC91DFF8FC813368AA
S214402FD01A68002A00F0CE80DB681C68B84704A850
S214402FE06F4B98470546049B002B44D1A04212D213
S214402FF00022611B6B4B18686B4B98476B4B98478E
S21440300000283AD14FF08053C9F80030BFF34F8FB5
S214403010BFF36F8F31E0654B98473368DB68D3F872
S2144030200CA00AF10400C047DAF81C30012B04D08B
S214403030DAF82430504698471FE0DAF8181023464E
S2144030402A46214450465A4DA8470128F0D100212F
S21440305000910B4622465046564CA0470028E7D1E2
S2144030604FF0800372B683F31188BFF36F8FBFF3C0
S2144030704F8F62B6FEE74D4B98474A4D4E4C06E0A2
S21440308007990698059B9847049B002B09DA00236E
S2144030901A4604A92868A047002898D0049B002B0D
S2144030A0EEDBDDF818A0DAF8143013B10AF10400AC
S2144030B0C04703A83A4B9847049B092BE7D801A280
S2144030C052F823F0ED304000ED304000ED30400047
S2144030D08F304000413140006D314000ED304000BF
S2144030E0ED3040008F30400041314000059CDAF81A
S2144030F0181023460246214450462D4CA04701282E
S214403100BCD1DAF8243050469847DAF81C30012B08
S214403110B4D1DAF81820002100910B4605980244F5
S2144031205046244CA0470028A8D14FF0800372B6E2
S21440313083F31188BFF36F8FBFF34F8F62B6FEE7FE
S2144031400599CAF8181031B1034602460144504664
S214403150174CA04792E74FF0800372B683F311886E
S214403160BFF36F8FBFF34F8F62B6FEE75046134BE9
S214403170984783E7B84704A8094B98470546049BF9
S214403180002B7FF478AF0E4B1B681A68B2FA82F2B7
S214403190520900242DE700BF740D4020E52440006E
S2144031A0052F4000A80D4020452140004D264000F8
S2144031B06D2D4000952E4000411F40006D18400088
S2144031C0780D402004ED00E0FD14400070B50C463C
S2144031D02A4B984213D02A4B984219D0294B9842F2
S2144031E01FD0294B984225D0284B98422BD0284BAD
S2144031F0984231D0274B984237D0002070BD1E46AB
S214403200254D21463046A8470028FAD1012070BDFA
S2144032101E46214D21463046A8470028FAD10120B7
S21440322070BD1E461C4D21463046A8470028FAD1A0
S214403230012070BD1E46184D21463046A84700283E
S214403240FAD1012070BD1E46144D21463046A8478F
S2144032500028FAD1012070BD1E46104D214630464A
S214403260A8470028FAD1012070BD1E460B4D2146C6
S2144032703046A8470028FAD1012070BD00080E400D
S214403280000A0E40001A0E40001C0E40004002404D
S2144032900080024000C002409D104000B511400032
S2144032A000B583B00648074B984702A9012341F86A
S2144032B0043D054B1868054B984703B05DF804FB82
S2144032C038744000A93A40002C0E4020611E400051
S2144032D000B583B00648074B984702A9012341F83A
S2144032E0043D054B1868054B984703B05DF804FB52
S2144032F050744000A93A4000300E4020611E400005
S21440330008B5074B9847074D2B46002211460648FE
S214403310064CA0472B46142200210548A047FEE74E
S214403320710540000C004020D4744000D904400091
S214403330E4744000F0B583B005460C460023019384
S2144033402A4B984213D02A4B984218D0294B984281
S2144033501DD0294B9D4222D0284B9D4227D0284B3A
S2144033609D422ED0274B9D4235D003B0F0BD1F4620
S214403370254E21463846B0470028FAD1E9E71F4691
S214403380214E21463846B0470028FAD1E4E71F468A
S2144033901D4E21463846B0470028FAD1DFE71F4683
S2144033A0194E21463846B0470028FAD1DAE71E467D
S2144033B0164D01A93046A8470028FAD1019B237034
S2144033C0D3E71E46114D01A93046A8470028FAD13A
S2144033D0019B2370C9E71E460C4D01A93046A847FD
S2144033E00028FAD1019B2370BFE700BF00080E40BB
S2144033F0000A0E40001A0E40001C0E4000400240DC
S2144034000080024000C00240AF104000CB11400098
S21440341008B50A4601460248024B9847FEE700BFF9
S214403420E8744000A93A400070474FF0800372B6F7
S21440343083F31188BFF36F8FBFF34F8F62B6FEE7FB
S21440344070B50C20184CA0470A20A0471020A04773
S2144034500C20A0470A20A047144E08234FF4807241
S2144034604FF040513046124CA047124D01234FF4C6
S21440347000624FF020512846A04701234FF080526B
S2144034804FF020510C48A04701234FF000424FF028
S21440349020513046A04701234FF400224FF02051E0
S2144034A02846A04770BD00BF4910400000120E409D
S2144034B0290D4000000E0E4000140E4038B505465B
S2144034C00C460846034B9847024621462846024B80
S2144034D0984738BD01444000010940002DE9F047B7
S2144034E082B08946C3B180461D46561E1CD0002475
S2144034F00E4FDFF83CA005E0013D0120D04765B106
S214403500B4420AD201A94046B8470028F4D1019BEC
S21440351009F804300134F2E70024002309F80430A7
S214403520204602B0BDE8F0873446F6E7CB114000AF
S2144035306D27400070B504460D4616461946044BA6
S2144035409847049B324629462046024CA04770BD09
S214403550BD344000DD344000F0B587B00D20174C38
S214403560A0474FF416530093C02301934FF40063D3
S21440357002930025039504950D20A047104C114A50
S21440358069462046104B98472046104FB84720467D
S2144035900F4EB0472046B8472046B0470D4E2B4604
S2144035A001224FF0C05130460B4CA0472B4602221A
S2144035B04FF0C0513046A04707B0F0BD491040001C
S2144035C00040024080D1F00845114000991140006B
S2144035D09F11400000100E40290D40002DE9F0419B
S2144035E0A2B0DFF888801C4E6427009743464FF40D
S2144035F07A7202A93046194DA8474FF4FA70184C13
S214403600A047009743464FF47A7202A93046A8472F
S2144036104FF4FA70A0470097124B4FF47A7202A903
S2144036203046A8474FF4FA70A047009743464FF4F9
S2144036307A7202A93046A8474FF4FA70A04700971E
S214403640094B4FF47A7202A93046A8474FF4FA70F5
S214403650A04722B0BDE8F08100400240353540002A
S2144036606D2740006C7440008074400068744000D1
S21440367038B504460D46064B984720B9294620469D
S214403680044B984738BD29462046034B984738BDDB
S214403690B90D4000170C40001B0C40002DE9F043CC
S2144036A083B05C4B98475C4B984752238DF8073065
S2144036B05A4C5B4D5B4E01E00A20A8472046B04777
S2144036C00028F9D048212046574B9847574E01E0EE
S2144036D00A20A8472046B0470028F9D00DF1070138
S2144036E02046534B98479DF807304F2BE2D14B4E20
S2144036F04C4D4B4C01E00A20A0473046A8470028D6
S214403700F9D053214548484B98470424494F4FF435
S2144037108076494D31463846A847013CFAD1DFF815
S21440372024813E4C3F4D3E4E3F4F67E04FF4807104
S2144037304048414B98474FF0310901E00A20B047D6
S2144037402046A8470028F9D049462046B84701E019
S2144037500A20B0472046A8470028F9D058212046DE
S214403760B8474FF000424FF020513248C04710B1A2
S2144037704FF0320909E04FF480712E482E4B98479F
S2144037804FF0330901E00A20B0472046A8470028FA
S214403790F9D049462046B84701E00A20B0472046BF
S2144037A0A8470028F9D058212046B8474FF40022B1
S2144037B04FF020512148C04710B14FF0340909E07E
S2144037C04FF480711B481C4B98474FF0350901E079
S2144037D00A20B0472046A8470028F9D04946204648
S2144037E0B84701E00A20B0472046A8470028F9D04D
S2144037F058212046B8474FF4FA70B0474FF08052F1
S2144038004FF020510E48C04700288FD04FF0300967
S21440381096E700BF59354000DD3540000040024085
S2144038206D274000A5114000B5114000AD11400085
S214403830CB11400000120E4071364000000E0E4084
S21440384000140E401F0C40002DE9F04F83B00A20B4
S214403850224CA0470A20A047092308224FF02051B7
S2144038601F48DFF890B0D8473C2208211C48DFF8B4
S21440387088A0D0471B4B0093402308220A211848B3
S214403880DFF87890C84708211548DFF87480C047AD
S2144038901348154FB847154D4FF480662E60802468
S2144038A085F80A43092310224FF020510C48D84788
S2144038B03C2210210A48D0470D4B0093402310224B
S2144038C00A210748C84710210548C0470448B8475A
S2144038D02E6085F80A4303B0BDE8F08F49104000DB
S2144038E0000E0E40D1324000FB0D400000E100E0EB
S2144038F0A1324000290D4000FD0B4000550E40000F
S214403900F70D400000B58BB0364B9847364B98477E
S214403910364B9847364B9847364D374B1D60374A9F
S214403920374B1A60374A384B1A604FF41653049395
S214403930C02305934FF4006306930024079408942D
S2144039400E20324B9847324A04A92846314B9847B6
S2144039502846314B98472846304B9847304E336878
S214403960214698682F4DA847336821465868A8478F
S214403970336821469868A8470322214601202A4BEF
S21440398098472A4B186028B3032200210120264B73
S2144039909847274B186008B300230393029301937C
S2144039A000934FF4C06223492348244CA047012883
S2144039B002D02348234B9847002303930293019356
S2144039C000934FF48062204920481C4CA047204B6F
S2144039D09847FEE71F481B4B9847D5E71D48194BAD
S2144039E09847D9E791084000650A400049384000AA
S2144039F04134400000800240E80D4020CD31400078
S214403A00E40D402035334000E00D40204910400092
S214403A1080D1F00845114000991140009F114000A8
S214403A20240040205D424000011B4000300E4020F4
S214403A302C0E4020A8744000013340002122400054
S214403A40B0744000A93A4000D07440009D36400013
S214403A50552440008C74400070B50F4E0F4D761BB9
S214403A60B61018BF002405D0013455F8043B9847DB
S214403A70A642F9D10A4E0B4D761B03F0F5FDB61063
S214403A8018BF002406D0013455F8043B9847A64298
S214403A90F9D170BD70BD00BF7476400074764000AA
S214403AA07C764000747640000FB400B5074983B07A
S214403AB004AB086853F8042B8168019300F04EFD70
S214403AC003B05DF804EB04B0704700BF240040200C
S214403AD0024B0146186800F00BB800BF2400402097
S214403AE0024B0146186801F055BE00BF2400402036
S214403AF02DE9F04F01F10B06162E83B0054640F235
S214403B009E8036F0070600F1BD80B14200F2BA80D2
S214403B1000F086FBB6F5FC7FC0F09382730A00F097
S214403B20B880042B00F27981B30903F1390003F120
S214403B30380EC300BF4F3B44A3F108015C68A14266
S214403B4006D10CE0002A80F2AA80E468A14206D0A2
S214403B50636823F003039A1B0F2AF3DD70463C6923
S214403B60DFF8E4E2744500F0AB81636823F00303BA
S214403B709A1B0F2A00F39081002AC7F814E0C7F872
S214403B8010E080F29D80B3F5007F80F06181DB0815
S214403B9003F1010C99107A6857F83C80C4F8088005
S214403BA001238B4007EBCC0113430839E1607B606F
S214403BB047F83C40C8F80C408210012494409C4290
S214403BC000F28B801C4206D120F0030064001C42A9
S214403BD000F10400FAD007EBC009CC468046DCF87A
S214403BE00C309C4507D16DE1002A80F27B81DB6872
S214403BF09C4500F06781596821F003018A1B0F2A13
S214403C00F2DDD3F80CC0D3F8088000939C19284600
S214403C1046F0010642F001055E60C8F80CC0CCF8DC
S214403C2008807C613C61C4F80CE0C4F808E065603C
S214403C305A5000F0FBFA009B03F108041EE01029DE
S214403C4020D800F0EDFA102618230220794F3B4486
S214403C50A3F108025C68944200F03D816368E16825
S214403C60A66823F00303234428465A68F16042F0CE
S214403C7001028E605A6000F0D9FA0834204603B03C
S214403C80BDE8F08F00240C2320462B6003B0BDE82F
S214403C90F08F40204FF400734FF03F0E4AE7234426
S214403CA0E1685A68A66842F00102F16028468E60D4
S214403CB05A6000F0BBFA0834204603B0BDE8F08FE7
S214403CC0234428465A6842F001025A6000F0AEFA91
S214403CD00834204603B0BDE8F08FBC68636823F024
S214403CE00308B04504D3A8EB06030F2B00F38580EA
S214403CF0DFF85891504BD9F800201B680132334406
S214403D0004EB080A00F0558103F580530F3323F483
S214403D107F6B2BF00F0B5946284600F08DFA411C5E
S214403D20024600F0FC80824500F2F780434B19685B
S214403D305944196000F04D81D9F8000001301BBF8E
S214403D40A2EB0A0A5144C9F80020196012F0070194
S214403D5000F01581C1F10800C1F5805102440831D8
S214403D6002EB0B09C9F30B09A1EB090949462846A2
S214403D700193009200F060FA431C9DE80C0000F0AE
S214403D804381801A484440F001001968BA604944AB
S214403D90BC425060196017D0B8F10F0F40F2FB805C
S214403DA06068A8F10C0222F0070204EB020E00F055
S214403DB001004FF0050C10430F2A6060CEF804C097
S214403DC0CEF808C000F217811D4BBC681A689142B5
S214403DD088BF19601B4B1A689142626888BF196099
S214403DE022F003029642A2EB060301D80F2B04DC16
S214403DF0284600F01BFA002440E7A21943F00103CE
S214403E0046F0010666602846BA60536000F00EFA37
S214403E100834204603B0BDE8F08F142B71D9542BDC
S214403E2000F2A380330B03F16F0003F16E0EC30064
S214403E3080E600BF50044020DC0D4020AC0D402002
S214403E40D40D4020D80D402058044020580840202B
S214403E505A0A042A5BD9142A00F2AE8002F15C01A9
S214403E60C9005B3207EB010C7958ACF1080C8C4565
S214403E7000F088804A6822F00302934273D2896831
S214403E808C45F7D1DCF80C207B68E260C4F808C0AB
S214403E909460CCF80C408FE6A11946F0010C42F035
S214403EA00106C4F804C0284679613961C1F80CE0BF
S214403EB0C1F808E04E60E25000F0B8F90834DDE69C
S214403EC07B6879E608F1010818F0030F0CF1080C3E
S214403ED07FF485AE2DE0DC68A34208BF02303FF495
S214403EE03EAEBBE619441C464A68DB6854F8086F89
S214403EF042F001024A602846F3609E6000F096F960
S214403F00BCE603F15C0003F15B0EC30012E69A09BF
S214403F1002F13901C9003832A4E7BC4254D0BC682B
S214403F20626822F003025DE759F80839994540F087
S214403F30868010F0030F00F1FF30F5D17B6823EA4E
S214403F4004037B6064009C423FF6C7AE002C3FF4FF
S214403F50C4AE1C4240467FF43EAE64001C4200F1B4
S214403F600400FAD037E68C468CE7B3F5AA7F15D81E
S214403F70F30B03F1780003F1770EC300DAE54FF454
S214403F808051EDE67B689210012101FA02F213435C
S214403F907B60624679E70123536029E740F254523A
S214403FA0934222D8B30C03F17D0003F17C0EC3008C
S214403FB0C0E503F1100BAEE6542A29D81A0B02F1DD
S214403FC06F01C9006E324DE7204B1968594419609D
S214403FD0B2E6CAF30B0000287FF4AEAE08EB0B0344
S214403FE0BA6843F001035360EEE67F204FF47E73D9
S214403FF04FF07E0E9EE504F108012846009301F03E
S214404000C9FB009B1968DFE601204FF00009BCE6BB
S214404010B2F5AA7F05D8DA0B02F17801C9007732EB
S21440402020E740F254518A4205D89A0C02F17D01AD
S214404030C9007C3216E74FF47E717E2212E77B6819
S21440404080E7F00806F1080300E600BFAC0D40200C
S214404050844641EA000313F003036DD1403A41D34E
S21440406051F8043B40F8043B51F8043B40F8043B0D
S21440407051F8043B40F8043B51F8043B40F8043BFD
S21440408051F8043B40F8043B51F8043B40F8043BED
S21440409051F8043B40F8043B51F8043B40F8043BDD
S2144040A051F8043B40F8043B51F8043B40F8043BCD
S2144040B051F8043B40F8043B51F8043B40F8043BBD
S2144040C051F8043B40F8043B51F8043B40F8043BAD
S2144040D051F8043B40F8043B51F8043B40F8043B9D
S2144040E0403ABDD2303211D351F8043B40F8043B3D
S2144040F051F8043B40F8043B51F8043B40F8043B7D
S21440410051F8043B40F8043B103AEDD20C3205D34C
S21440411051F8043B40F8043B043AF9D2043208D044
S214404120D2071CBF11F8013B00F8013B01D30B88B6
S21440413003806046704700BF082A13D38B078DD094
S21440414010F003038AD0C3F10403D21ADB071CBF66
S21440415011F8013B00F8013B80D331F8023B20F8D0
S214404160023B7BE7043AD9D3013A11F8013B00F809
S214404170013BF9D20B7803704B7843708B78837091
S2144041806046704770B4860746D0541E002A41D019
S214404190CAB2034602E014F1FF343BD303F8012BC6
S2144041A09D07F8D1032C2ED9CDB245EA05250F2C14
S2144041B045EA054519D903F110022646103E0F2E52
S2144041C042F8105C42F80C5C42F8085C42F8045C2A
S2144041D002F11002F2D8A4F1100222F00F0204F00D
S2144041E00F041032032C13440DD91E462246043ABF
S2144041F0032A46F8045BFAD8221F22F00302043250
S214404200134404F003042CB1C9B21C4403F8011B48
S2144042109C42FBD170BC704714460346C2E700BFC1
S214404220014801F051BD00BF440E4020014801F056
S2144042304DBD00BF440E402038B5074C0023054610
S21440424008462360FDF7FEF8431C00D038BD2368BF
S214404250002BFBD02B6038BD580E402000290CBFE9
S214404260022200224FF4806300F000B82DE9F043AC
S214404270614C256883B004460F4690461E4615B1ED
S214404280AB6B002B64D0B8F1020F06D0B8F1010F2B
S21440429000F29F80002EC0F29C80636ED80734D513
S2144042A02146284601F0F8F8216B41B104F140035D
S2144042B0994202D0284601F06DFA00232363B4F9F0
S2144042C00C300022A26162601A063AD423F44A6394
S2144042D023F00303B8F1020FA3811DD001AB6A4659
S2144042E02146284601F0F4FCA3891843A081002EFD
S2144042F032D1009E3046FFF7EBFB074600286BD0D6
S214404300A38943F08003A38128E0A3899905C7D4F5
S214404310A06D01F0D9FCC3E70025616E002604F1CC
S214404320430243F002030120A660CE07A381226029
S2144043302261606101D498053ED5284603B0BDE8A9
S214404340F0832169284601F025FAB4F90C30BDE720
S214404350284601F0F9F896E7002FCBD0AB6B002B40
S21440436033D0009BB4F90C2027609E421CBF42F419
S2144043700062A281B8F1010F04BF42F00102A2819F
S21440438092B212F00803276166610ED0D1071AD5A3
S214404390656E7642002315F00105A661A36009D03C
S2144043A00025284603B0BDE8F083A360656E15F08F
S2144043B00105F5D19305C0D4A06D01F087FC2846D1
S2144043C003B0BDE8F083A660F0E7284601F0BCF8ED
S2144043D0C7E74FF0FF35B0E7DDF80090B14504D0B1
S2144043E04846FFF775FB074620B9B4F90C304FF046
S2144043F0FF3592E74E4683E7240040200000000049
S21440440090F800F06DE9024520F007016FF0000CCF
S21440441010F0070491F820F040F049804FF0000477
S2144044206FF00700D1E9002391F840F000F1080052
S21440443082FA4CF2A4FA8CF283FA4CF3A2FA8CF38A
S2144044404BBBD1E9022382FA4CF200F10800A4FAF1
S2144044508CF283FA4CF3A2FA8CF3E3B9D1E9042345
S21440446082FA4CF200F10800A4FA8CF283FA4CF37C
S214404470A2FA8CF37BB9D1E9062301F1200182FA36
S2144044804CF200F10800A4FA8CF283FA4CF3A2FA3C
S2144044908CF3002BC6D0002A04BF04301A4612BA4A
S2144044A0B2FA82F2FDE8024500EBD2007047D1E94D
S2144044B0002304F00305C4F100004FEAC50514F0DC
S2144044C0040F91F840F00CFA05F562EA05021CBFAD
S2144044D063EA050362464FF00004A9E72DE9F84F6A
S2144044E04B6E9C0493462FD59368126853B30E4682
S2144044F0074602F1080919E920045FEA9A0817D02E
S214404500043D002401E0A04510D0324655F8041F73
S214404510384601F0BBF8431C04F10104F3D10023F4
S214404520CBF80830CBF80430BDE8F88FDBF808301D
S2144045302AF0030AA3EB0A03CBF8083009F108096E
S214404540002BD8D10020EAE701F00AFA0023CBF886
S2144045500830CBF80430BDE8F88F00BF2DE9F04FA7
S214404560ADB01D468B4690460793069018B1836BB8
S214404570002B00F0F380DBF86430BBF90C00DF075B
S21440458081B202D48E0540F1FC808C040AD4DBF85C
S214404590643040F4005123F40053ABF80C10CBF8D1
S2144045A0643089B2080740F1B380DBF81030002B46
S2144045B000F0AE8001F01A030A2B00F0B58000230D
S2144045C00DF170090B93119310930393CDF83C9023
S2144045D0CA46CDF810B098F800304446FBB1252BBB
S2144045E002D11CE0252B03D014F8013F002BF9D153
S2144045F0A4EB08059DB1109B119ACAF800800133C0
S2144046002A44072BCAF80450119210937ADD002AE8
S21440461040F0B084039B10922B44CA460393237801
S214404620002B00F0E08300204FF000038DF8373079
S21440463004F1010862780546064603464FF0FF340B
S21440464008F10108A2F12001582900F2DE82DFE8D5
S21440465011F02102DC02DC022902DC02DC02DC0270
S214404660DC02DC02DC0289029502DC02A200BD020A
S214404670DC029F01A401A401A401A401A401A40199
S214404680A401A401A401DC02DC02DC02DC02DC02A0
S214404690DC02DC02DC02DC02DC02B201DC02DC0210
S2144046A0DC02DC02DC02DC02DC02DC02DC02DC02D5
S2144046B09701DC02DC02DC02DC02DC029B01DC024D
S2144046C0DC025302DC02DC02DC02DC02DC02DC023E
S2144046D0DC02DC02DC02DC025A021B02DC02DC02E8
S2144046E0DC026E021B02DC02DC027302DC02F50115
S2144046F082010902D702DC029A02DC02A700DC0231
S214404700DC022E020AF1080A039B2B44039386E739
S2144047105946069800F0ACFD18BBBBF80C1001F0EB
S2144047201A030A2B7FF44BAFBBF90E30002BFFF673
S21440473046AFDBF86430DB0705D48F0503D4DBF8DF
S214404740580001F0C3FA2B4642465946069800F0F8
S2144047504DFD039003982DB0BDE8F08F00F0F4FEB9
S21440476009E7DBF86430D90704D4BBF80C309A0567
S21440477040F1AA844FF0FF33039303982DB0BDE871
S214404780F08FDBF8580001F09FFABBF90C0081B2BD
S214404790FBE67642079243F0040398F800204FE782
S2144047A008969E0600F150840799DD060A4600F1F9
S2144047B0EF83580640F1EC830E880431002701222F
S2144047C007914FF000018DF837100025611C00F06E
S2144047D0168123F08001029156EA070140F01481C9
S2144047E0002C40F05C83002A40F0B78313F00103AE
S2144047F0059300F057840DF1B00B30230BF8413D84
S214404800059BA342B8BF234601930DB101330193E4
S214404810029B13F00203099302D0019B02330193DB
S214404820029B13F084030A9340F01782089B019A78
S2144048309D1A002D40F31182102D40F39084109B5A
S214404840119AC44ED6461027A2461946069C07E043
S21440485001F1020C0EF1080E0146103D102D11DD3F
S214404860481C1032072811928EE8C0001090EFDDE9
S214404870002A40F0E481103D102D11464FF0010C07
S214404880CE46EDDC54466146F2462A44072911924C
S214404890CAF80060CAF80450109100F3EC829DF804
S2144048A037500AF1080A481C002D40F0DE81099B6B
S2144048B0002B00F0F88102320EA90223072811923D
S2144048C010908AE80A0040F3EA81002A40F08C8380
S2144048D00A9B802B4FF001001146CA4640F0E78104
S2144048E0089B019D5E1B002E40F3E181102E9A4DE1
S2144048F040F35084D4461027A246069C07E001F1B8
S214404900020E0CF1080C0146103E102E11DD481C1C
S2144049101032072811928CE8A0001090EFDD002A94
S21440492040F09D82103E102E4FF0010E1146CC46B0
S214404930EDDC5446E2463244BEF1070F11928AE857
S2144049406000CDF840E000F369830AF1080A0EF1F2
S21440495001007146ABE1089613F0200240F08C83CC
S21440496013F0100140F01A8313F0400200F0168353
S21440497007980A460146043106880791002720E733
S214404980089643F01003E7E7089643F0100308E75D
S21440499043F0800398F8002052E6A2F1300100264A
S2144049A018F8012B06EB860601EB4606A2F130010D
S2144049B00929F5D946E60896002840F0088443F0D1
S2144049C010039E0600F14C83DD0600F1F382580684
S2144049D040F1F082079DB5F900602A46F717043289
S2144049E0304639460792002871F10002C0F25D83D6
S2144049F0611C9DF837504FF001027FF4EAAE56EA4C
S214404A00070100F04D820293012A00F08C82022AB0
S214404A1040F05C820B98CB46330906F00F0143EA20
S214404A2007733A091E461746435C0BF8013D56EAA3
S214404A300703F1D1A9EB0B030593E1E6002840F00C
S214404A40C083990600F16783DA0600F1F1805B06C1
S214404A5040F1EE80079A136804320792BDF80C20A6
S214404A601A80B8E507983D4A08960B920668782261
S214404A70302104308DF8392043F002030790002798
S214404A808DF8381002229CE60896002899D08DF8BA
S214404A90375096E798F80020002D7FF4D1AD0120DE
S214404AA02025CDE543F0010398F80020C8E5089698
S214404AB0002840F0938329490B919F0600F1E88235
S214404AC00798DE06014600F170825D0640F16D8271
S214404AD00431068807910027D80740F1228256EA1B
S214404AE0070100F01E8230218DF8392043F0020382
S214404AF08DF83810022264E60896002840F06B8352
S214404B0017490B91D9E7079908960A688DF8482007
S214404B104FF000000A468DF837000432012001901D
S214404B20079205900DF1480B0293002470E643F07F
S214404B30400398F8002083E598F800206C2A03BFCD
S214404B4098F8012043F0200308F1010843F01003D1
S214404B5076E500BF34754000447540001875400047
S214404B600475400007990E680A46002E02F10402BA
S214404B70FFF60FAE079298F8002061E598F80020FF
S214404B8001202B255CE507990896D1F800B04FF038
S214404B9000028DF837200E1DBBF1000F00F0E582B5
S214404BA0671C00F0C482224600215846019301F05B
S214404BB01FF9019B002800F0E582A0EB0B0205924E
S214404BC0079602939DF83750002419E698F800207F
S214404BD02A2A08F1010700F0E982A2F130010929EA
S214404BE0B8464FF000043FF62DAD18F8012B04EB05
S214404BF0840401EB4404A2F130010929F5D921E5EA
S214404C0043F0200398F800201AE50896002840F064
S214404C10DB82002A00F0E78001218DF848204FF023
S214404C20000201918DF8372005910DF1480B7BE786
S214404C30079A136804320792039A1A60CBE40FAAC5
S214404C4004992046FFF74AFC002840F03981109925
S214404C50119A01F1010CCE46FFE51099119A481CB5
S214404C609DF83750002D3FF422AE01320DF1370546
S214404C700121072811921090CAF80050CAF8041073
S214404C8040F30881002A40F0BC81099B002B3FF48A
S214404C901FAE0EAB022208461C931D92CA46014622
S214404CA00AF1080A01300A9B802B3FF419AE059B97
S214404CB0E41A002C2EDD102CB34D1EDDD6461026F1
S214404CC0069FDDF810A006E0881C0EF1080E194677
S214404CD0103C102C10DD4B1C1032072B11928EE826
S214404CE060001093F0DD002A65D1103C102C4FF088
S214404CF001001146CE46EEDCF246224407281192C9
S214404D00CAF80050CAF80440109000F385800AF1B3
S214404D10080A01300599CAF800B00A4407281192DB
S214404D20CAF80410109040F38280002A40F01881A0
S214404D30029B1092580735D5089B01995C1A002CA7
S214404D4040F3E780CA46102C40F3188210998F4EE5
S214404D50069FDDF810B0102506E0881C0AF1080A08
S214404D601946103C102C11DD4B1C1032072B1192AB
S214404D70CAF80060CAF804501093EEDD42BB103CFF
S214404D80102C4FF001001146CA46EDDC224407289D
S214404D901192CAF80060CAF80440109051DD002A0B
S214404DA040F09B81039B089A01998A42ACBF9B18AE
S214404DB05B1803934EE00FAA51463846FFF78EFB2A
S214404DC0002840F03F811099119A481CCE467FE754
S214404DD00FAA59463846FFF781FB60B91099119AD9
S214404DE0481CCA46BDE7119BDDF810B0002B40F0CA
S214404DF0D48100231093DBF8643013F0010FBBF826
S214404E000C3002D19A0540F1DE805B063FF5B2AC2D
S214404E1003982DB0BDE8F08F002A40F00681059A31
S214404E201D9201231192CDF870B01093CA460AF134
S214404E30080A029B590704D5089B01995C1A002C66
S214404E4081DC039B089901988142ACBF5B181B1814
S214404E50039372BB00231093CA46FFF7BCBB0FAA4E
S214404E6004992046FFF73AFB50BB1099119A01F17E
S214404E70010ECC4648E5002A40F040819DF83710A8
S214404E80002900F01B8101220DF1370110461D92CA
S214404E901C91CA4601460AF1080A013007E5029B02
S214404EA0012A00F09880022A0DD10293002600279E
S214404EB0B0E50FAA04990698FFF710FB0028C9D062
S214404EC0DDF810B097E7029300260027494600E039
S214404ED05946F20842EA4772F80806F007030746C2
S214404EE01646303356EA070201F8013C01F1FF3B13
S214404EF0EED1029AD6077FF59DAD302B3FF49AADA2
S214404F00023930230BF8013CA9EB010305938B468D
S214404F1076E4039B089A8A42ACBF9B185B180393BF
S214404F2098E702224DE4002F08BF0A2E52D3CB4604
S214404F30304639460A22002301F0C6FB30320BF8D1
S214404F40012D3046394600230A2201F0BDFB0646B5
S214404F500F4656EA0703EBD16CE50594CB464FE483
S214404F600FAA04990698FFF7B9FA0028A8D1119A13
S214404F70CA465EE70FAA04990698FFF7AFFA0028DC
S214404F809ED1CA46FFF7C0BB44754000347540000A
S214404F900431166807910122002712E4079801465B
S214404FA004310668079100270BE40E680431079128
S214404FB0002791E507990E680A46F71704320792CC
S214404FC0304639460FE5DBF8580000F07FFEBBF868
S214404FD00C301AE7029B02930DF1B00B30360123DA
S214404FE00BF8416D05930BE40FAA04990698FFF75A
S214404FF075FA00287FF464AF1099119A481CCA4687
S21440500051E60FAA04990698FFF768FA00287FF43D
S21440501057AF1099119A481CCA4648E4002A40F0F7
S214405020918001201146CA4641E60FAA0499069887
S214405030FFF754FA00287FF443AF1098119A0130D6
S214405040CA4667E6D346D6E6079E073626F00702E8
S21440505002F10801D2E9006707910122FFF7B1BBD0
S214405060079E073626F00706D6E9000106F1080235
S214405070079206460F46B6E4079E073626F0070216
S21440508002F10801D2E9006707910022FFF799BBB9
S214405090079E073626F0070101F108000790D1E980
S2144050A0006719E5CB46FFF7ABBB2D25764267EB8D
S2144050B047078DF837500122FFF788BB099BB3B9E5
S2144050C011460120CA46F2E5DBF8580000F0FEFD26
S2144050D04FF0FF330393FFF750BB0FAA049906988F
S2144050E0FFF7FCF900287FF4EBAE119AA9E60EAB69
S2144050F002221C931D920120CA46D0E50FAA0499AD
S2144051000698FFF7EBF900287FF4DAAE1099119A6B
S214405110481CCA46A4E5079A03991368CD17084663
S214405120043229460792C3E90001FFF754BA5846AD
S21440513007960293FFF764F9002405909DF83750D0
S214405140FFF75EBB0FAA04990698FFF7C7F9002839
S2144051507FF4B6AE1099119A481CCA46A7E5109936
S214405160119A204E0131FFF790BB062C28BF06242B
S214405170059407960194DFF870B0D5E41098194E60
S214405180013003E605949DF837500796029304468F
S214405190FFF736BB8646FFF7CEBB06980FAA5946A2
S2144051A0FFF79CF900283FF424AE24E6079998F8C8
S2144051B001200C68043144EAE474B8460791FFF7CE
S2144051C03FBA8DF837503CE48DF8375021E58DF8DE
S2144051D03750FFF7F4BB8DF8375091E48DF83750D1
S2144051E069E400BF347540002C7540002DE9F0415D
S2144051F00C46ADF58D6D8989666EE589199621F068
S21440520002010646E069ADF80C1017464FF480617F
S214405210626AADF80E5098461AAD0023079016A85D
S21440522009920693009504950291059100F048FD79
S21440523043463A4669463046FFF790F9051E07DB77
S2144052403046694600F028F9002818BF4FF0FF3571
S214405250BDF80C305B0603D5A38943F04003A38119
S214405260169800F02FFD28460DF58D6DBDE8F081AF
S21440527038B5304B1B6805460C4613B19A6B002A6E
S21440528038D0B4F90C2093B218070CD52069A8B1D1
S21440529013F001021ED0636900225B42A361A26044
S2144052A0F0B1002038BDD9063CD5580726D4206931
S2144052B042F00803A3819BB20028E9D103F4207290
S2144052C0B2F5007FE4D02846214600F02FFDA389A2
S2144052D02069DDE7990758BF6269A2600028E0D1DF
S2144052E0B4F90C301A06DDD543F04003A3814FF0E5
S2144052F0FF3038BD184600F027F9C2E7216B51B1A0
S21440530004F14003994204D0284600F043FAB4F929
S2144053100C200023236300232069636022F02402CC
S2144053202060C5E742F0400209232B604FF0FF3073
S214405330A28138BD24004020024B13B1024800F041
S21440534005B8704700000000B955400000230146EC
S2144053501A46184601F090B8B1F90C309AB22DE9C9
S214405360F0410D46110780463AD46A6843F400631C
S214405370002AAB816FDDAC6A002C49D000229BB27C
S214405380D8F80060C8F8002013F4805267D02A6D21
S2144053905F0705D569682B6B521A0BB1EB6BD21AB7
S2144053A00023E9694046A047441C3CD0B5F90C3080
S2144053B02A692A6023F400630022AB81DB046A601A
S2144053C047D4296BC8F8006011B305F140039942F1
S2144053D002D0404600F0DEF900202863BDE8F081A8
S2144053E02E69AEB12C682E6091070CBF6B69002306
S2144053F0A41BAB600AE0234632466F6AE969404622
S214405400B8470028A4EB0004064404DD002CF2DC78
S2144054100020BDE8F081AB8943F04003AB814FF0FC
S214405420FF30BDE8F081D8F800401D2CF3D8194B6A
S214405430E340DB4313F00103EDD1B5F90C206B607C
S21440544022F400632969AB81DA042960B9D5002CBF
S214405450B7D12865B5E7EA6B002A8CDCD8E701238C
S214405460E9694046A047431C024602D0AB89AC6A75
S2144054708EE7D8F80030002BF8D01D2B01D0162B25
S21440548002D1C8F80060C3E7AB8943F04003AB8164
S214405490BDE8F0810100402038B50D46044608B10D
S2144054A0836BBBB1B5F90C0088B16B6EDB0701D4DA
S2144054B0810517D520462946FFF74EFF6B6EDA0763
S2144054C0044602D4AB899B0507D5204638BD044622
S2144054D0204638BD00F038F8E4E7A86D00F0F6FB4B
S2144054E0204638BDA86D00F0EFFBE3E7014900F029
S2144054F0AFBB00BF6165400010B500230446818104
S214405500C281036043608360436603614361836195
S214405510194608225C30FEF735FE07480749084A18
S214405520084B2062E4616162A262E36204F15800C3
S214405530BDE8104000F0C4BBA5624000C962400010
S214405540056340002563400010B50446124800F04D
S214405550BBFBA26BD2B904F53B731048C4F8E832E3
S2144055600321C4F8E022E063C4F8E4126068042132
S214405570FFF7C2FF01220921A068FFF7BDFF022204
S2144055801221E068FFF7B8FF0123A3630248BDE895
S214405590104000F09BBB00BF400E4020ED54400042
S2144055A0014800F091BB00BF540E4020014800F077
S2144055B08DBB00BF540E402038B50A4C0A4D641BC4
S2144055C0A4100AD004F18043013B05EB8305013C5F
S2144055D055F804399847002CF9D1BDE8384002F018
S2144055E04DB800BF8C764000887640002DE9F047E5
S2144055F082B080468946144600F054FB012836D0D7
S2144056004A4604F15C0301A9404600F0E7FE421C0E
S214405610064625D0A8B39DF804E000250DF1040AFF
S21440562009E023685A1C226083F800E00135B54241
S21440563027D215F80AE0A368013B002BA360F0DAF6
S214405640A769BB4271462246404602DBBEF10A0FBE
S214405650E7D100F06BFE431CE8D102B0BDE8F0870E
S214405660A38943F04003A38102B0BDE8F08709F167
S214405670FF33FE2BC4D85FFA89FE06468DF804E059
S214405680CBE7484602B0BDE8F08700BF30B5536E62
S21440569013F0010FB2F90C30144683B005469AB2A7
S2144056A001D190051CD5900406D4626E43F4005395
S2144056B042F40052A381626628462246FFF796FFD0
S2144056C0636EDA07054602D4A3899B0502D52846B1
S2144056D003B030BDA06D00F0F9FA284603B030BDE7
S2144056E0A06D019100F0F0FAB4F90C3001999AB22D
S2144056F0D9E700BFF8B5244F0C460646FEF790FDA6
S214405700BB685D68C4F57E610F3125F0030529440A
S21440571021F47F6121F00F01A1F58054B4F5805F3C
S21440572007DB00213046FEF787FDBB682B449842D6
S21440573004D03046FEF77AFD0020F8BD6142304680
S214405740FEF77AFD01300DD0104BBA6819682D1B54
S21440575045F001053046091B55601960FEF766FDA9
S2144057600120F8BD00213046FEF766FDBA68831A70
S2144057700F2BDEDD064C0549246843F00103001B71
S21440578053600860D5E700BF50044020AC0D402071
S21440579058084020002944D02DE9F0410D46804667
S2144057A0FEF73EFD55F8047C694927F00103A5F154
S2144057B00804E2188E685068B24220F003005ED0BB
S2144057C0FE0750600BD455F8087CE41B01F1080E28
S2144057D0A56875453B446DD0E768EF60BD60151819
S2144057E06D68ED073ED543F001026260E350B3F5C5
S2144057F0007F17D2DB08581C9A104D6851F830705D
S214405800A7600123934001EBC0022B43083AE260B5
S2144058104B6041F83040FC604046BDE8F041FEF742
S21440582005BD70475A0A042A52D89A0902F1390728
S214405830FF0002F13805C819CA59083890424FD0BF
S214405840516821F003018B4232D292689042F7D1E0
S214405850C368A060E3609C60C4604046BDE8F04119
S214405860FEF7E4BC95683B4FBD42034440D0D06849
S214405870E86043F0010285606260E350B7E7FF07E7
S214405880034407D455F8082CA41A1344A068E268C9
S214405890C2609060304A126843F0010093426060F4
S2144058A08C60B9D32D4B40461968FFF723FFB3E70A
S2144058B01046CDE711184968C90744D49168D268A4
